:062000000AEF10F00101DF
:10200800FACF03F0FBCF04F0A8ED3EF0E2EF3DF08D
:107B9000D59ED58CD59AD596D580D582D584D10E53
:107BA000D66ED768F28A12002A50D8A42A06295025
:107BB000D8A4290623502210D8B403D02206D8A076
:107BC0002306120000EE22F00A0EEE6AE806FDE13E
:107BD000040EF66E200EF76E000EF86E0900F5CF5B
:107BE0002CF00900F5CF2DF0000EF86E000139EFF2
:107BF0003FF0000E896E000E8A6E000E8B6E000E36
:107C00008C6E000E8D6E000E806E000E816E000E6A
:107C1000826E000E836E000E846EF00E956E949C44
:107C2000949E070EB46E0F0EC16EC00E926E000EC3
:107C3000966E93681200E8CF12F0000E896E899854
:107C4000899A8D908D9208D0898A14D08D8012D017
:107C50008D8210D089880ED01250010AD8B4FAD77C
:107C6000030AD8B4F1D7010AD8B4F0D7070AD8B4B8
:107C7000EFD7F0D711500F0B116E8950F00B896EB2
:107C800089501110896E12002B6604D08D9289885C
:107C900027C002F02B04D8A404D08998898A24C074
:107CA00002F02B50020AD8A404D0899A8D8025C0F6
:107CB00002F02B50030AD8A404D08D908D8228C0E6
:107CC00002F002C001F00F0E01168950F00B0110F6
:107CD000896E2B2A2B50030B2B6E12002AD02350B7
:107CE0002210D8A434D08C740BD023502210D8A4E6
:107CF0002ED08C7605D023502210D8A428D08B7C8F
:107D000011C022F012C023F02D2A21D023502210BE
:107D1000D8A41DD08B7E11C022F012C023F004D055
:107D2000030E236EE80E226E136E010E2D6E13509D
:107D30000ED02D50010AD8B4D2D7030AD8B4D5D763
:107D4000010AD8B4D8D7070AD8B4E0D7E9D71200C7
:107D50000600E9CF05F0EACF06F0E1CF07F0E2CF69
:107D600008F0D9CF09F0DACF0AF0F3CF0BF0F4CF57
:107D70000CF0F6CF0DF0F7CF0EF0F8CF0FF0F5CFF7
:107D800010F0F2A406D0F294D10ED66ED768D4ECDF
:107D90003DF02604D8B444EC3EF0F29410C0F5FF58
:107DA0000FC0F8FF0EC0F7FF0DC0F6FF0CC0F4FFC8
:107DB0000BC0F3FF0AC0DAFF09C0D9FF08C0E2FF19
:107DC00007C0E1FF06C0EAFF05C0E9FF04C0FBFFF2
:107DD00003C0FAFF1100E8CF17F03CD02A6648D064
:107DE00017C011F0010E1BEC3EF0166E040E2A6E49
:107DF0001650166E020E24D02A663AD013C011F027
:107E0000020E1BEC3EF0166E040E2A6E1650166E15
:107E1000030E16D02A662CD014C011F0030E1BECF2
:107E20003EF0166E040E2A6E1650166E040E08D022
:107E30002A661ED015C011F0040E1BEC3EF003D0D4
:107E40002C6E165015D0166E040E2A6E1650166E35
:107E5000010EF6D72C50010AD8B4C0D7030AD8B403
:107E6000CBD7010AD8B4D6D7070AD8B4E1D7EBD715
:107E70001200186E000E216E1850186E010E206E42
:107E80001850186E000E1C6E1850186E000E1D6EE5
:107E90001850186E000E1E6E1850186E000E1F6ED1
:107EA0001850000E1B6E640E1A6EF9EC3DF0C8EC13
:107EB0003DF0F28EF28ED58E20C013F0186E030EB8
:107EC000146E1850196E040E156E19502150EBECFB
:107ED0003EF083B811D0090E215CD8B00DD01C66DD
:107EE0000BD0296609D0212A186E010E1C6E18507D
:107EF000186E640E296E185083A80DD01C04D8A4E7
:107F00000AD0296608D0186E000E1C6E1850186E24
:107F1000640E296E185083BA10D02150D8B40DD0F9
:107F20001D660BD0296609D02106186E010E1D6E44
:107F30001850186E640E296E185083AA0DD01D04B7
:107F4000D8A40AD0296608D0186E000E1D6E1850ED
:107F5000186E640E296E185083BC10D01E660ED0A9
:107F600029660CD02050FF0A010B206E186E010EFE
:107F70001E6E1850186E640E296E185083AC0DD00A
:107F80001E04D8A40AD0296608D0186E000E1E6EF2
:107F90001850186E640E296E185083BE12D01F66DA
:107FA00010D029660ED0640E1A241A6E000E1B2003
:107FB0001B6E186E010E1F6E1850186E640E296E1F
:107FC000185083AE0DD01F04D8A40AD0296608D05B
:107FD000186E000E1F6E1850186E640E296E185021
:107FE0002004D8A406D01AC011F01BC012F06EEC09
:107FF0003EF081B861D7000E1B6E640E1A6E5CD71E
:020000040020DA
:08000000FFFFFFFFFFFFFFFF00
:020000040030CA
:0E000000240E3F1EFF8181FF0FC00FE00F4056
:00000001FF
