:062000000AEF10F00101DF
:10200800FACF01F0FBCF02F0ADED3EF013EF3EF05A
:107BF200D59ED58CD59AD596D580D582D584D10EF1
:107C0200D66ED768F28A12002350D8A423062250D7
:107C1200D8A4220621502010D8B403D02006D8A020
:107C220021061200236A226A216A206A040EF66E75
:107C3200200EF76E000EF86E0900F5CF24F0090051
:107C4200F5CF25F0000EF86E000139EF3FF0000E7F
:107C5200896E000E8A6E000E8B6E000E8C6E000E08
:107C62008D6E000E806E000E816E000E826E000E12
:107C7200836E000E846EF00E956E949C949E070E99
:107C8200B46E0F0EC16EC00E926E000E966E9368A9
:107C92001200E8CF10F0000E896E8998899A8D90B3
:107CA2008D9208D0898A14D08D8012D08D8210D006
:107CB20089880ED01050010AD8B4FAD7030AD8B472
:107CC200F1D7010AD8B4F0D7070AD8B4EFD7F0D762
:107CD2000F500F0B0F6E8950F00B896E89500F10E9
:107CE200896E12002AD021502010D8A434D08C746E
:107CF2000BD021502010D8A42ED08C7605D0215044
:107D02002010D8A428D08B7C0FC020F010C021F006
:107D1200252A21D021502010D8A41DD08B7E0FC03F
:107D220020F010C021F004D0030E216EE80E206E68
:107D3200116E010E256E11500ED02550010AD8B4D5
:107D4200D2D7030AD8B4D5D7010AD8B4D8D7070AEC
:107D5200D8B4E0D7E9D712000600E9CF03F0EACFA2
:107D620004F0E1CF05F0E2CF06F0D9CF07F0DACF89
:107D720008F0F3CF09F0F4CF0AF0F6CF0BF0F7CF0B
:107D82000CF0F8CF0DF0F5CF0EF0F2A406D0F2947D
:107D9200D10ED66ED76805EC3EF00EC0F5FF0DC0D1
:107DA200F8FF0CC0F7FF0BC0F6FF0AC0F4FF09C0D2
:107DB200F3FF08C0DAFF07C0D9FF06C0E2FF05C023
:107DC200E1FF04C0EAFF03C0E9FF02C0FBFF01C0FC
:107DD200FAFF1100E8CF15F03CD0236648D015C059
:107DE2000FF0010E4AEC3EF0146E040E236E145096
:107DF200146E020E24D023663AD011C00FF0020E88
:107E02004AEC3EF0146E040E236E1450146E030EF0
:107E120016D023662CD012C00FF0030E4AEC3EF0AF
:107E2200146E040E236E1450146E040E08D02366D2
:107E32001ED013C00FF0040E4AEC3EF003D0246EA5
:107E4200145015D0146E040E236E1450146E010ECD
:107E5200F6D72450010AD8B4C0D7030AD8B4CBD776
:107E6200010AD8B4D6D7070AD8B4E1D7EBD71200A3
:107E7200166E000E1F6E1650166E010E1E6E1650F6
:107E8200166E000E1A6E1650166E000E1B6E1650EF
:107E9200166E000E1C6E1650166E000E1D6E1650DB
:107EA200000E196E640E186E28EC3EF0F9EC3DF0EF
:107EB200F28EF28ED58E1EC011F0166E030E126E69
:107EC2001650176E040E136E17501F50EBEC3EF057
:107ED20083B811D0090E1F5CD8B00DD01A660BD032
:107EE200226609D01F2A166E010E1A6E1650166EE1
:107EF200640E226E165083A80DD01A04D8A40AD09C
:107F0200226608D0166E000E1A6E1650166E640E99
:107F1200226E165083BA10D01F50D8B40DD01B66F3
:107F22000BD0226609D01F06166E010E1B6E16506C
:107F3200166E640E226E165083AA0DD01B04D8A4AE
:107F42000AD0226608D0166E000E1B6E1650166EF0
:107F5200640E226E165083BC10D01C660ED02266B0
:107F62000CD01E50FF0A010B1E6E166E010E1C6E07
:107F72001650166E640E226E165083AC0DD01C0481
:107F8200D8A40AD0226608D0166E000E1C6E1650B7
:107F9200166E640E226E165083BE12D01D6610D06D
:107FA20022660ED0640E1824186E000E1920196E67
:107FB200166E010E1D6E1650166E640E226E16504F
:107FC20083AE0DD01D04D8A40AD0226608D0166E46
:107FD200000E1D6E1650166E640E226E16501E0492
:107FE200D8A406D018C00FF019C010F073EC3EF000
:0E7FF20081B861D7000E196E640E186E5CD750
:020000040020DA
:08000000FFFFFFFFFFFFFFFF00
:020000040030CA
:0E000000240E3F1EFF8181FF0FC00FE00F4056
:00000001FF
